:100000000C942A000C9447000C9447000C94470071
:100010000C9447000C9447000C9447000C94470044
:100020000C9447000C949C150C9447000C944700CA
:100030000C9447000C9447000C9447000C94470024
:100040000C9447000C9447000C9447000C94470014
:100050000C94470011241FBECFE5D4E0DEBFCDBF16
:1000600010E0A0E6B0E0EEE3FDE202C005900D92E4
:10007000A83DB107D9F721E0A8EDB0E001C01D927D
:10008000A338B207E1F70E9478160C949D160C94E1
:1000900000000C9488160C94901680912601909183
:1000A00027010E94490090E09093770080937600AA
:1000B0008091D2009091D3000E94490090E09093EB
:1000C0007500809374008091D0009091D1000E94BF
:1000D000490090E090937300809372008091CE006D
:1000E0009091CF000E94490090E09093710080931E
:1000F00070008091CC009091CD000E94490090E06A
:1001000090936F0080936E008091CA009091CB0015
:100110000E94490090E090936D0080936C00809164
:10012000C8009091C9000E94490090E09093EF00B0
:100130008093EE008091C6009091C7000E94490014
:1001400090E09093ED008093EC008091C40090913A
:10015000C5000E94490090E09093EB008093EA0074
:100160008091C2009091C3000E94490090E090935A
:10017000E9008093E8008091C0009091C1000E9446
:10018000490090E09093E7008093E6008091BE00E4
:100190009091BF000E94490090E09093E500809309
:1001A000E40008958091BC009091BD000E94490038
:1001B00090E090936B0080936A008091BA009091D8
:1001C000BB000E94490090E0909369008093680012
:1001D0008091B8009091B9000E94490090E09093FE
:1001E0006700809366008091B6009091B7000E94EE
:1001F000490090E090936500809364008091B40082
:100200009091B5000E94490090E090936300809324
:1002100062008091B2009091B3000E94490090E08A
:1002200090936100809360008091B0009091B10044
:100230000E94490090E09093E3008093E200809157
:10024000AE009091AF000E94490090E09093E100D1
:100250008093E0008091AC009091AD000E94490035
:1002600090E09093DF008093DE008091AA0090914F
:10027000AB000E94490090E09093DD008093DC0089
:100280008091A8009091A9000E94490090E090936D
:10029000DB008093DA008091A6009091A7000E9475
:1002A000490090E09093D9008093D800089561E0D0
:1002B00080912601909127010E944B0062E080917D
:1002C000D2009091D3000E944B0063E08091D00057
:1002D0009091D1000E944B0064E08091CE009091FB
:1002E000CF000E944B0065E08091CC009091CD0042
:1002F0000E944B0066E08091CA009091CB000E9462
:100300004B0060E08091C8009091C9000E944B00B2
:1003100060E08091C6009091C7000E944B0060E0B1
:100320008091C4009091C5000E944B0060E08091D4
:10033000C2009091C3000E944B0060E08091C00019
:100340009091C1000E944B0060E08091BE009091AE
:10035000BF000E944B0061E08091BC009091BD0005
:100360000E944B0062E08091BA009091BB000E9415
:100370004B0063E08091B8009091B9000E944B005F
:1003800064E08091B6009091B7000E944B0065E058
:100390008091B4009091B5000E944B0066E080917E
:1003A000B2009091B3000E944B0060E08091B000D9
:1003B0009091B1000E944B0060E08091AE0090915E
:1003C000AF000E944B0060E08091AC009091AD00C6
:1003D0000E944B0060E08091AA009091AB000E94C7
:1003E0004B0060E08091A8009091A9000E944B0012
:1003F00060E08091A6009091A7000C944B000F93B1
:100400001F938091280190912901892B09F058C0F0
:1004100080912C0190912D01009709F048C08091A6
:100420002A0190912B01019709F04AC080914C015B
:1004300090914D01029690934D0180934C018091D3
:100440004A0190914B01029690934B0180934A018F
:1004500080914801909149010296909349018093BF
:10046000480180914601909147010296909347017F
:1004700080934601809144019091450102969093AA
:10048000450180934401809142019091430102967D
:1004900090934301809342010E94E61560932E01E0
:1004A00070932F01809330019093310109C001971F
:1004B00039F480912A0190912B01892B09F4B6CF50
:1004C0008091280190912901019709F054C00E9460
:1004D000E61500912E0110912F01209130013091ED
:1004E0003101601B710B820B930B64307105810528
:1004F000910508F440C080914C0190914D01019606
:1005000090934D0180934C0180914A0190914B0151
:10051000019690934B0180934A01809148019091FC
:1005200049010196909349018093480180914601C9
:1005300090914701019690934701809346018091E5
:1005400044019091450101969093450180934401A7
:1005500080914201909143010196909343018093D1
:1005600042010E94E61560932E0170932F01809343
:1005700030019093310180914C0190914D01099788
:1005800034F081E090E090934D0180934C01809194
:100590004A0190914B010D9734F081E090E09093E7
:1005A0004B0180934A018091480190914901419704
:1005B00034F081E090E0909349018093480180916C
:1005C000460190914701499734F081E090E0909383
:1005D00047018093460180914401909145018197A4
:1005E00034F081E090E09093450180934401809144
:1005F000420190914301899734F081E090E090931B
:100600004301809342011F910F9108958091EE0064
:100610009091EF008130910509F053C080914C0119
:1006200090914D0104970CF456C08091EC0090918C
:10063000ED008130910509F07CC080914C019091D2
:100640004D0104970CF47FC08091EA009091EB007B
:100650008130910509F0A5C080914C0190914D0128
:1006600004970CF4A8C08091E8009091E9008130D3
:10067000910509F0CEC080914C0190914D010497F5
:100680000CF4D1C08091E6009091E7008130910593
:1006900009F0F7C080914C0190914D0104970CF442
:1006A000FAC08091E4009091E5008130910509F055
:1006B00020C180914C0190914D0104970CF449C1E7
:1006C00008958230910561F480914A0190914B0127
:1006D00006970CF0AACF1092790110927801A5CF5D
:1006E0008330910539F48091480190914901089730
:1006F00094F39BCF8430910539F480914601909119
:1007000047010C9744F391CF8530910539F48091DE
:100710004401909145014097F4F287CF069709F084
:1007200084CF809142019091430144970CF07DCF9A
:10073000D2CF8230910561F480914A0190914B01B2
:1007400006970CF081CF10927701109276017CCF42
:100750008330910539F480914801909149010897BF
:1007600094F372CF8430910539F4809146019091D1
:1007700047010C9744F368CF8530910539F4809197
:100780004401909145014097F4F25ECF069709F03D
:100790005BCF809142019091430144970CF054CF7C
:1007A000D2CF8230910561F480914A0190914B0142
:1007B00006970CF058CF109275011092740153CF28
:1007C0008330910539F4809148019091490108974F
:1007D00094F349CF8430910539F48091460190918A
:1007E00047010C9744F33FCF8530910539F4809150
:1007F0004401909145014097F4F235CF069709F0F6
:1008000032CF809142019091430144970CF02BCF5D
:10081000D2CF8230910561F480914A0190914B01D1
:1008200006970CF02FCF10927301109272012ACF0D
:100830008330910539F480914801909149010897DE
:1008400094F320CF8430910539F480914601909142
:1008500047010C9744F316CF8530910539F4809108
:100860004401909145014097F4F20CCF069709F0AE
:1008700009CF809142019091430144970CF002CF3F
:10088000D2CF8230910561F480914A0190914B0161
:1008900006970CF006CF109271011092700101CFF3
:1008A0008330910539F4809148019091490108976E
:1008B00094F3F7CE8430910539F4809146019091FC
:1008C00047010C9744F3EDCE8530910539F48091C2
:1008D0004401909145014097F4F2E3CE069709F068
:1008E000E0CE809142019091430144970CF0D9CE23
:1008F000D2CF8230910539F480914A0190914B0119
:1009000006973CF108958330910539F480914801B0
:10091000909149010897ECF008958430910539F4DD
:1009200080914601909147010C979CF00895853085
:10093000910539F4809144019091450140974CF024
:100940000895069751F48091420190914301449794
:1009500024F410926F0110926E0108958091E200CC
:100960009091E3008130910509F053C080914C01D2
:1009700090914D0104970CF456C08091E000909145
:10098000E1008130910509F07CC080914C0190918B
:100990004D0104970CF47FC08091DE009091DF0040
:1009A0008130910509F0A5C080914C0190914D01D5
:1009B00004970CF4A8C08091DC009091DD00813098
:1009C000910509F0CEC080914C0190914D010497A2
:1009D0000CF4D1C08091DA009091DB008130910558
:1009E00009F0F7C080914C0190914D0104970CF4EF
:1009F000FAC08091D8009091D9008130910509F01A
:100A000020C180914C0190914D0104970CF449C193
:100A100008958230910561F480914A0190914B01D3
:100A200006970CF0AACF10926B0110926A01A5CF25
:100A30008330910539F480914801909149010897DC
:100A400094F39BCF8430910539F4809146019091C5
:100A500047010C9744F391CF8530910539F480918B
:100A60004401909145014097F4F287CF069709F031
:100A700084CF809142019091430144970CF07DCF47
:100A8000D2CF8230910561F480914A0190914B015F
:100A900006970CF081CF10926901109268017CCF0B
:100AA0008330910539F4809148019091490108976C
:100AB00094F372CF8430910539F48091460190917E
:100AC00047010C9744F368CF8530910539F4809144
:100AD0004401909145014097F4F25ECF069709F0EA
:100AE0005BCF809142019091430144970CF054CF29
:100AF000D2CF8230910561F480914A0190914B01EF
:100B000006970CF058CF109267011092660153CFF0
:100B10008330910539F480914801909149010897FB
:100B200094F349CF8430910539F480914601909136
:100B300047010C9744F33FCF8530910539F48091FC
:100B40004401909145014097F4F235CF069709F0A2
:100B500032CF809142019091430144970CF02BCF0A
:100B6000D2CF8230910561F480914A0190914B017E
:100B700006970CF02FCF10926501109264012ACFD6
:100B80008330910539F4809148019091490108978B
:100B900094F320CF8430910539F4809146019091EF
:100BA00047010C9744F316CF8530910539F48091B5
:100BB0004401909145014097F4F20CCF069709F05B
:100BC00009CF809142019091430144970CF002CFEC
:100BD000D2CF8230910561F480914A0190914B010E
:100BE00006970CF006CF109263011092620101CFBC
:100BF0008330910539F4809148019091490108971B
:100C000094F3F7CE8430910539F4809146019091A8
:100C100047010C9744F3EDCE8530910539F480916E
:100C20004401909145014097F4F2E3CE069709F014
:100C3000E0CE809142019091430144970CF0D9CECF
:100C4000D2CF8230910539F480914A0190914B01C5
:100C500006973CF108958330910539F4809148015D
:100C6000909149010897ECF008958430910539F48A
:100C700080914601909147010C979CF00895853032
:100C8000910539F4809144019091450140974CF0D1
:100C90000895069751F48091420190914301449741
:100CA00024F4109261011092600108958091060170
:100CB0009091070190932301809322018091040178
:100CC0009091050190932101809320018091020170
:100CD0009091030190931F0180931E018091000168
:100CE0009091010190931D0180931C018091FE0061
:100CF0009091FF0090931B0180931A018091FC005A
:100D00009091FD00909319018093180180916C01DE
:100D100090916D0190931701809316018091FA00D4
:100D20009091FB0090931501809314018091F8003D
:100D30009091F90090931301809312018091F60035
:100D40009091F70090931101809310018091F4002D
:100D50009091F50090930F0180930E018091F20025
:100D60009091F30090930D0180930C018091F0001D
:100D70009091F10090930B0180930A0180915E01A4
:100D800090915F01909309018093080180912C015B
:100D900090912D0190932B0180932A0110925D0177
:100DA00010925C0110925B0110925A0110926D0139
:100DB00010926C011092550110925401109207018B
:100DC0001092060110920501109204011092030185
:100DD0001092020110920101109200011092FF0086
:100DE0001092FE001092FD001092FC00109279010A
:100DF000109278011092770110927601109275018D
:100E0000109274011092730110927201109271018C
:100E10001092700110926F0110926E0110925F019A
:100E200010925E0110925301109252011092FB0039
:100E30001092FA001092F9001092F8001092F70048
:100E40001092F6001092F5001092F4001092F30048
:100E50001092F2001092F1001092F00010926B01CB
:100E600010926A0110926901109268011092670154
:100E70001092660110926501109264011092630154
:100E800010926201109261011092600110922D0186
:100E900010922C01B1990EC080917600909177004C
:100EA000909379018093780181E090E0909307011D
:100EB00080930601B2990EC08091740090917500E4
:100EC000909377018093760181E090E09093050103
:100ED00080930401B3990EC08091720090917300C9
:100EE000909375018093740181E090E090930301E9
:100EF00080930201B4990EC08091700090917100AE
:100F0000909373018093720181E090E090930101CE
:100F100080930001B5990EC080916E0090916F0092
:100F2000909371018093700181E090E09093FF00B5
:100F30008093FE00B6990EC080916C0090916D0078
:100F400090936F0180936E0181E090E09093FD009B
:100F50008093FC00B09906C081E090E090936D0111
:100F600080936C019D990EC080916A0090916B00F6
:100F700090936B0180936A0181E090E09093FB0075
:100F80008093FA009C990EC080916800909169004E
:100F9000909369018093680181E090E09093F9005B
:100FA0008093F8009B990EC0809166009091670035
:100FB000909367018093660181E090E09093F70041
:100FC0008093F6009A990EC080916400909165001C
:100FD000909365018093640181E090E09093F50027
:100FE0008093F40099990EC0809162009091630003
:100FF000909363018093620181E090E09093F3000D
:101000008093F20098990EC08091600090916100E9
:10101000909361018093600181E090E09093F100F2
:101020008093F0009E9906C081E090E090935F016C
:1010300080935E01B79906C081E090E090932D0106
:1010400080932C019F9953C081E090E090932901F7
:10105000809328018091060190910701209104015D
:1010600030910501820F931F2091020130910301FD
:10107000820F931F2091000130910101820F931F75
:101080002091FE003091FF00820F931F2091FC0001
:101090003091FD00820F931F90935501809354016E
:1010A0008091FA009091FB002091F8003091F900B6
:1010B000820F931F2091F6003091F700820F931F4B
:1010C0002091F4003091F500820F931F2091F200DF
:1010D0003091F300820F931F2091F0003091F100C6
:1010E000820F931F909353018093520108951092A1
:1010F000290110922801AECF0E945606809154011A
:10110000909155010397D9F48091060190910701C0
:101110000197A9F48091040190910501019779F458
:101120008091020190910301019749F410923F01CF
:1011300010923E0160E088E190E00E944B008091B7
:101140005401909155010397E1F48091040190912D
:1011500005010197B1F4809102019091030101977B
:1011600081F480910001909101018130910549F451
:1011700090933F0180933E0161E088E190E00E94FE
:101180004B0080915401909155010397E9F48091AF
:101190000201909103010197B9F4809100019091AF
:1011A0000101019789F48091FE009091FF00019761
:1011B00059F482E090E090933F0180933E0162E019
:1011C00088E190E00E944B0080915401909155017C
:1011D00083309105F1F4209100013091010121301B
:1011E0003105B9F42091FE003091FF002130310526
:1011F00081F42091FC003091FD002130310549F44B
:1012000090933F0180933E0163E088E190E00E946B
:101210004B0080915401909155010397E9F480911E
:10122000FE009091FF000197B9F48091FC0090912D
:10123000FD00019789F480910601909107010197C3
:1012400059F484E090E090933F0180933E0164E084
:1012500088E190E00E944B008091540190915501EB
:101260000397E9F48091FC009091FD000197B9F497
:101270008091060190910701019789F48091040102
:1012800090910501019759F485E090E090933F011A
:1012900080933E0165E088E190E00E944B0088E188
:1012A00090E00E944900282F30E030933F012093C6
:1012B0003E012EE1829FC001112490933B01809357
:1012C0003A012091240130912501280F391F3093D4
:1012D0002701209326012091A4003091A500280F1A
:1012E000391F3093D3002093D2002091A200309177
:1012F000A300280F391F3093D1002093D0002091F4
:10130000A0003091A100280F391F3093CF00209307
:10131000CE0020919E0030919F00280F391F3093FE
:10132000CD002093CC0020919C0030919D00280F8F
:10133000391F3093CB002093CA0020919A0030913E
:101340009B00280F391F3093C9002093C8002091BB
:10135000980030919900280F391F3093C7002093CF
:10136000C6002091960030919700280F391F3093C6
:10137000C5002093C4002091940030919500280F5F
:10138000391F3093C3002093C20020919200309106
:101390009300280F391F3093C1002093C000209183
:1013A000900030919100820F931F9093BF00809323
:1013B000BE0008950E9456068091520190915301FB
:1013C0000397D9F48091FA009091FB000197A9F45A
:1013D0008091F8009091F900019779F48091F600DE
:1013E0009091F700019749F410923D0110923C0151
:1013F00060E089E190E00E944B0080915201909161
:1014000053010397E1F48091F8009091F90001975E
:10141000B1F48091F6009091F700019781F48091EA
:10142000F4009091F5008130910549F490933D01CD
:1014300080933C0161E089E190E00E944B00809143
:101440005201909153010397E9F48091F600909135
:10145000F7000197B9F48091F4009091F50001979D
:1014600089F48091F2009091F300019759F482E0A1
:1014700090E090933D0180933C0162E089E190E02F
:101480000E944B008091520190915301833091054D
:10149000F1F42091F4003091F50021303105B9F4D8
:1014A0002091F2003091F3002130310581F4209138
:1014B000F0003091F1002130310549F490933D0165
:1014C00080933C0163E089E190E00E944B008091B1
:1014D0005201909153010397E9F48091F2009091A9
:1014E000F3000197B9F48091F0009091F100019719
:1014F00089F48091FA009091FB00019759F484E0FF
:1015000090E090933D0180933C0164E089E190E09C
:101510000E944B0080915201909153010397E9F48E
:101520008091F0009091F1000197B9F48091FA0058
:101530009091FB00019789F48091F8009091F90057
:10154000019759F485E090E090933D0180933C0130
:1015500065E089E190E00E944B0089E190E00E9403
:101560004900282F30E030933D0120933C012EE1CB
:10157000829FC001112490933B0180933A012091F6
:101580008E0030918F00280F391F3093BD002093BB
:10159000BC0020918C0030918D00280F391F3093B2
:1015A000BB002093BA0020918A0030918B00280F55
:1015B000391F3093B9002093B800209188003091F2
:1015C0008900280F391F3093B7002093B60020916F
:1015D000860030918700280F391F3093B500209383
:1015E000B4002091840030918500280F391F30937A
:1015F000B3002093B2002091820030918300280F25
:10160000391F3093B1002093B000209180003091B9
:101610008100280F391F3093AF002093AE00209136
:101620007E0030917F00280F391F3093AD0020934A
:10163000AC0020917C0030917D00280F391F309341
:10164000AB002093AA0020917A0030917B00280FF4
:10165000391F3093A9002093A80020917800309181
:101660007900820F931F9093A7008093A60008959E
:10167000CF93DF9314BA8FEF85BB17BA88BBCCE04A
:10168000D0E01ABA11BA60E170E080E090E00E9408
:101690001816D09A889A60E170E080E090E00E948D
:1016A0001816219771F78AE190E00E944900813075
:1016B00001F581E090E090934101809340010E9408
:1016C0007C080E94DA090E944D000E94D2000E940C
:1016D000E61560932E0170932F0180933001909353
:1016E000310114BA8FEF85BB17BA88BBDF91CF9158
:1016F000089581E090E09093410180934001C7E01C
:10170000D0E020913E0130913F012F5F3F4F309359
:101710003F0120933E0180913C0190913D01019653
:1017200090933D0180933C012630310524F01092C6
:101730003F0110923E01069724F010923D01109255
:101740003C0160913E0188E190E00E944B00609175
:101750003C0189E190E00E944B000E947C080E94BD
:10176000DA090E945701219761F6609140018AE1F0
:1017700090E00E944B00A3CF0F931F93CF93DF9372
:1017800080916C0190916D01019781F580915401D8
:101790009091550182309105A1F5C0911601D0912B
:1017A0001701C130D10511F50E94E61500913601EF
:1017B000109137012091380130913901AB01BC0102
:1017C000401B510B620B730B8091D6009091D70098
:1017D000092E000CAA0BBB0B481759076A077B0799
:1017E00008F4A0C0D0935901C09358010E94E61597
:1017F00060933601709337018093380190933901DB
:1018000091C08130910551F5C0911601D091170119
:10181000C130D10559F70E94E615009136011091AB
:1018200037012091380130913901AB01BC01401BD7
:10183000510B620B730B8091D6009091D700092E4B
:10184000000CAA0BBB0B481759076A077B0708F463
:1018500069C0D0935101C0935001C8CF039731F6AE
:101860008091160190911701019709F0BFCF0E9456
:10187000E615009136011091370120913801309121
:101880003901AB01BC01401B510B620B730B809102
:10189000D6009091D700092E000CAA0BBB0B48175D
:1018A00059076A077B07F0F10E94E615609336013D
:1018B0007093370180933801909339010E947C081E
:1018C000D0E0C0E080913E0190913F018C179D07D0
:1018D0003CF110925B0110925A011ABA6CE271E06D
:1018E00080E090E00E94181680915A0190915B016F
:1018F000816090935B0180935A018ABB6EE170E036
:1019000080E090E00E9418160E94E6156093360170
:101910007093370180933801909339012196D2CF8B
:101920000E944D0080915E0190915F01019779F5D1
:10193000809152019091530182309105B9F5C09187
:101940000801D0910901C130D10509F50E94E615C1
:101950000091320110913301209134013091350111
:10196000AB01BC01401B510B620B730B8091D60085
:101970009091D700092E000CAA0BBB0B48175907F2
:101980006A077B0770F0D0935701C09356010E94FD
:10199000E615609332017093330180933401909384
:1019A0003501DF91CF911F910F91089581309105FD
:1019B00049F5C0910801D0910901C130D10539F72D
:1019C0000E94E615009132011091330120913401FB
:1019D00030913501AB01BC01401B510B620B730B05
:1019E0008091D6009091D700092E000CAA0BBB0B5A
:1019F000481759076A077B07A0F2D0934F01C0939D
:101A00004E01C5CF039719F6809108019091090105
:101A1000019709F0BCCF0E94E615009132011091A8
:101A200033012091340130913501AB01BC01401BE1
:101A3000510B620B730B8091D6009091D700092E49
:101A4000000CAA0BBB0B481759076A077B0708F461
:101A5000A8CF0E94DA09D0E0C0E080913C019091CB
:101A60003D018C179D073CF110925D0110925C01C5
:101A700011BA6CE271E080E090E00E94181680914B
:101A80005C0190915D01816090935D0180935C01A8
:101A900081BB6EE170E080E090E00E9418160E9429
:101AA000E615609332017093330180933401909373
:101AB00035012196D2CFDF91CF911F910F910C94D8
:101AC000D20080917801909179018130910519F1CE
:101AD000209176013091770121303105E1F020919C
:101AE00074013091750121303105A9F02091720106
:101AF000309173012130310571F0209170013091E6
:101B000071012130310539F020916E0130916F0162
:101B10002130310549F420915A0130915B01226056
:101B200030935B0120935A018230910519F1209185
:101B300076013091770122303105E1F02091740176
:101B40003091750122303105A9F020917201309158
:101B500073012230310571F02091700130917101D3
:101B60002230310539F020916E0130916F01223021
:101B7000310549F420915A0130915B012460309382
:101B80005B0120935A018330910519F12091760170
:101B90003091770123303105E1F0209174013091CB
:101BA000750123303105A9F0209172013091730144
:101BB0002330310571F02091700130917101233093
:101BC000310539F020916E0130916F0123303105DC
:101BD00049F420915A0130915B01286030935B01F8
:101BE00020935A018430910519F1209176013091AA
:101BF000770124303105E1F02091740130917501B5
:101C000024303105A9F02091720130917301243004
:101C1000310571F02091700130917101243031054E
:101C200039F020916E0130916F012430310549F473
:101C300020915A0130915B01206130935B01209328
:101C40005A018530910519F1209176013091770183
:101C500025303105E1F02091740130917501253076
:101C60003105A9F0209172013091730125303105C1
:101C700071F020917001309171012530310539F0FA
:101C800020916E0130916F012530310549F420918A
:101C90005A0130915B01206230935B0120935A011D
:101CA0000697F1F080917601909177010697C1F047
:101CB0008091740190917501069791F08091720165
:101CC00090917301069761F080917001909171017C
:101CD000069731F080916E0190916F01069749F45B
:101CE00080915A0190915B01806490935B01809395
:101CF0005A01089580916A0190916B01813091059C
:101D000019F1209168013091690121303105E1F02C
:101D1000209166013091670121303105A9F02091B1
:101D20006401309165012130310571F0209162012B
:101D3000309163012130310539F0209160013091FB
:101D400061012130310549F420915C0130915D0140
:101D5000226030935D0120935C018230910519F17E
:101D6000209168013091690122303105E1F0209124
:101D700066013091670122303105A9F0209164019C
:101D8000309165012230310571F02091620130916E
:101D900063012230310539F02091600130916101F9
:101DA0002230310549F420915C0130915D012460BD
:101DB00030935D0120935C018330910519F12091EE
:101DC00068013091690123303105E1F0209166010D
:101DD0003091670123303105A9F0209164013091E1
:101DE00065012330310571F020916201309163016A
:101DF0002330310539F020916001309161012330A9
:101E0000310549F420915C0130915D0128603093E7
:101E10005D0120935C018430910519F120916801E6
:101E20003091690124303105E1F020916601309153
:101E3000670124303105A9F02091640130916501DA
:101E40002430310571F0209162013091630124301A
:101E5000310539F020916001309161012430310564
:101E600049F420915C0130915D01206130935D0166
:101E700020935C018530910519F120916801309122
:101E8000690125303105E1F020916601309167014B
:101E900025303105A9F0209164013091650125308C
:101EA000310571F0209162013091630125303105D7
:101EB00039F020916001309161012530310549F4FC
:101EC00020915C0130915D01206230935D0120938F
:101ED0005C010697F1F08091680190916901069785
:101EE000C1F08091660190916701069791F0809111
:101EF000640190916501069761F080916201909173
:101F00006301069731F0809160019091610106971D
:101F100049F480915C0190915D01806490935D0132
:101F200080935C01089580916C0190916D018130E6
:101F3000910509F07BC02091540130915501223068
:101F4000310509F073C0109277001092760010925C
:101F5000750010927400109273001092720010922B
:101F600071001092700010926F0010926E0010922B
:101F70006D0010926C0090935B0180935A0181E098
:101F80008ABB60EA70E080E090E00E9418168091C1
:101F9000540190915501019721F410925B01109228
:101FA0005A0180915A018ABB80916C0190916D0118
:101FB000019709F030C18091160190911701892B8A
:101FC00009F029C1109259011092580160917600D0
:101FD00080912601909127010E944B00609174002E
:101FE0008091D2009091D3000E944B0060917200CA
:101FF0008091D0009091D1000E944B0060917000C0
:102000008091CE009091CF000E944B0060916E00B5
:102010008091CC009091CD000E944B0060916C00AB
:102020008091CA009091CB000C944B0060E170E06D
:1020300080E090E00E94181680915A0190915B0117
:10204000816090935B0180935A0180910601909189
:1020500007012091540130915501019791F480912D
:10206000220190912301892B61F42130310549F43B
:1020700080917600909177000196909377008093FD
:1020800076008091D4009091D500409176005091D7
:1020900077008417950724F4109277001092760049
:1020A00040910401509105014130510599F440914E
:1020B000200150912101452B69F42130310551F463
:1020C00040917400509175004F5F5F4F50937500C1
:1020D00040937400409174005091750084179507E7
:1020E00024F41092750010927400409102015091F6
:1020F00003014130510599F440911E0150911F0197
:10210000452B69F42130310551F440917200509112
:1021100073004F5F5F4F5093730040937200409184
:102120007200509173008417950724F41092730085
:10213000109272004091000150910101413051050F
:1021400099F440911C0150911D01452B69F42130F7
:10215000310551F440917000509171004F5F5F4F15
:102160005093710040937000409170005091710045
:102170008417950724F4109271001092700040911A
:10218000FE005091FF004130510599F440911A0131
:1021900050911B01452B69F42130310551F44091D8
:1021A0006E0050916F004F5F5F4F50936F004093F0
:1021B0006E0040916E0050916F008417950724F4D3
:1021C00010926F0010926E004091FC005091FD0043
:1021D0004130510599F44091180150911901452B56
:1021E00069F42130310551F420916C0030916D007B
:1021F0002F5F3F4F30936D0020936C0020916C0057
:1022000030916D00821793070CF0C1CE10926D00D3
:1022100010926C00BCCE089580915E0190915F0198
:102220008130910509F07BC020915201309153011A
:102230002230310509F073C010926B0010926A00D1
:102240001092690010926800109267001092660068
:102250001092650010926400109263001092620068
:10226000109261001092600090935D0180935C0178
:1022700081E081BB60EA70E080E090E00E94181687
:102280008091520190915301019721F410925D01C8
:1022900010925C0180915C0181BB80915E01909104
:1022A0005F01019709F030C1809108019091090107
:1022B000892B09F029C110925701109256016091A3
:1022C0006A008091BC009091BD000E944B0060911B
:1022D00068008091BA009091BB000E944B00609111
:1022E00066008091B8009091B9000E944B00609107
:1022F00064008091B6009091B7000E944B006091FD
:1023000062008091B4009091B5000E944B006091F2
:1023100060008091B2009091B3000C944B0060E19A
:1023200070E080E090E00E94181680915C0190912E
:102330005D01816090935D0180935C018091FA0062
:102340009091FB002091520130915301019791F43B
:102350008091140190911501892B61F42130310590
:1023600049F480916A0090916B00019690936B0004
:1023700080936A008091D4009091D50040916A00CA
:1023800050916B008417950724F410926B00109203
:102390006A004091F8005091F9004130510599F4DC
:1023A0004091120150911301452B69F42130310500
:1023B00051F440916800509169004F5F5F4F509316
:1023C000690040936800409168005091690084174B
:1023D000950724F410926900109268004091F6006D
:1023E0005091F7004130510599F4409110015091FE
:1023F0001101452B69F42130310551F440916600FB
:10240000509167004F5F5F4F5093670040936600A5
:1024100040916600509167008417950724F410924C
:102420006700109266004091F4005091F500413031
:10243000510599F440910E0150910F01452B69F41B
:102440002130310551F440916400509165004F5F97
:102450005F4F509365004093640040916400509139
:1024600065008417950724F41092650010926400AB
:102470004091F2005091F3004130510599F44091A0
:102480000C0150910D01452B69F42130310551F4B7
:1024900040916200509163004F5F5F4F5093630023
:1024A0004093620040916200509163008417950749
:1024B00024F410926300109262004091F000509159
:1024C000F1004130510599F440910A0150910B01FE
:1024D000452B69F42130310551F420916000309191
:1024E00061002F5F3F4F3093610020936000209187
:1024F000600030916100821793070CF0C1CE1092FA
:10250000610010926000BCCE089580916C019091A2
:102510006D01019759F580915401909155018130D9
:10252000910521F51092EF001092EE001092ED004F
:102530001092EC001092EB001092EA001092E90069
:102540001092E8001092E7001092E6001092E50069
:102550001092E40090935B0180935A0181E08ABB62
:1025600060EA70E080E090E00C94181660E170E0A2
:1025700080E090E00E94181680915A0190915B01D2
:10258000816090935B0180935A0120910601309104
:10259000070180915401909155012130310599F442
:1025A0002091220130912301232B69F48130910580
:1025B00051F42091EE003091EF002F5F3F4F3093A8
:1025C000EF002093EE002091EE003091EF002730D5
:1025D000310524F01092EF001092EE0020910401DA
:1025E000309105012130310599F42091200130917D
:1025F0002101232B69F48130910551F42091EC00E5
:102600003091ED002F5F3F4F3093ED002093EC00B1
:102610002091EC003091ED002730310524F010922C
:10262000ED001092EC002091020130910301213065
:10263000310599F420911E0130911F01232B69F47B
:102640008130910551F42091EA003091EB002F5F29
:102650003F4F3093EB002093EA002091EA00309145
:10266000EB002730310524F01092EB001092EA00C5
:1026700020910001309101012130310599F4209120
:102680001C0130911D01232B69F48130910551F417
:102690002091E8003091E9002F5F3F4F3093E9002F
:1026A0002093E8002091E8003091E90027303105BF
:1026B00024F01092E9001092E8002091FE00309181
:1026C000FF002130310599F420911A0130911B014E
:1026D000232B69F48130910551F42091E60030916B
:1026E000E7002F5F3F4F3093E7002093E6002091F3
:1026F000E6003091E7002730310524F01092E70022
:102700001092E6002091FC003091FD00213031054F
:1027100099F42091180130911901232B69F481302B
:10272000910551F42091E4003091E5002F5F3F4F77
:102730003093E5002093E4002091E4003091E5001F
:102740002730310524F01092E5001092E400019743
:1027500021F410925B0110925A0180915A018ABBB8
:1027600080916C0190916D010197D1F580911601D6
:1027700090911701892BA1F51092510110925001EF
:102780006091EE008091C8009091C9000E944B00BA
:102790006091EC008091C6009091C7000E944B00B0
:1027A0006091EA008091C4009091C5000E944B00A6
:1027B0006091E8008091C2009091C3000E944B009C
:1027C0006091E6008091C0009091C1000E944B0092
:1027D0006091E4008091BE009091BF000C944B008A
:1027E000089580915E0190915F01019759F5809164
:1027F0005201909153018130910521F51092E3002F
:102800001092E2001092E1001092E0001092DF00BE
:102810001092DE001092DD001092DC001092DB00BE
:102820001092DA001092D9001092D80090935D01B6
:1028300080935C0181E081BB60EA70E080E090E021
:102840000C94181660E170E080E090E00E94181689
:1028500080915C0190915D01816090935D01809316
:102860005C012091FA003091FB008091520190911F
:1028700053012130310599F4209114013091150153
:10288000232B69F48130910551F42091E2003091BD
:10289000E3002F5F3F4F3093E3002093E20020914D
:1028A000E2003091E3002730310524F01092E3007C
:1028B0001092E2002091F8003091F90021303105AA
:1028C00099F42091120130911301232B69F4813086
:1028D000910551F42091E0003091E1002F5F3F4FCE
:1028E0003093E1002093E0002091E0003091E1007E
:1028F0002730310524F01092E1001092E000209181
:10290000F6003091F7002130310599F42091100143
:1029100030911101232B69F48130910551F42091FC
:10292000DE003091DF002F5F3F4F3093DF002093B8
:10293000DE002091DE003091DF002730310524F0E9
:102940001092DF001092DE002091F4003091F5002B
:102950002130310599F420910E0130910F01232B84
:1029600069F48130910551F42091DC003091DD0053
:102970002F5F3F4F3093DD002093DC002091DC007F
:102980003091DD002730310524F01092DD001092E7
:10299000DC002091F2003091F3002130310599F4F0
:1029A00020910C0130910D01232B69F481309105A8
:1029B00051F42091DA003091DB002F5F3F4F3093CC
:1029C000DB002093DA002091DA003091DB00273021
:1029D000310524F01092DB001092DA002091F00013
:1029E0003091F1002130310599F420910A013091A4
:1029F0000B01232B69F48130910551F42091D8000B
:102A00003091D9002F5F3F4F3093D9002093D800E9
:102A10002091D8003091D9002730310524F0109250
:102A2000D9001092D800019721F410925D01109204
:102A30005C0180915C0181BB80915E0190915F019E
:102A40000197D1F58091080190910901892BA1F599
:102A500010924F0110924E016091E2008091B000FF
:102A60009091B1000E944B006091E0008091AE0017
:102A70009091AF000E944B006091DE008091AC000D
:102A80009091AD000E944B006091DC008091AA0003
:102A90009091AB000E944B006091DA008091A800F9
:102AA0009091A9000E944B006091D8008091A600EF
:102AB0009091A7000C944B0008950E9456060E9426
:102AC000BC0B0E94FF018091580190915901019720
:102AD00091F410925101109250010E94930F809135
:102AE0005601909157010197B9F410924F0110923D
:102AF0004E010C940C11809150019091510101975D
:102B000019F40E948512EBCF0E9406030E94610D0A
:102B100080915A018ABBE3CF80914E0190914F0181
:102B2000019711F40C94F1130E94AE040E947A0EE6
:102B300080915C0181BB08951F920F920FB60F9296
:102B400011242F933F938F939F93AF93BF938091C3
:102B50007B0190917C01A0917D01B0917E0130912B
:102B60007A0126E0230F2D3758F50296A11DB11DDD
:102B700020937A0180937B0190937C01A0937D0147
:102B8000B0937E0180917F0190918001A09181019D
:102B9000B09182010196A11DB11D80937F01909398
:102BA0008001A0938101B0938201BF91AF919F9169
:102BB0008F913F912F910F900FBE0F901F901895FE
:102BC00029E8230F0396A11DB11DD2CF2FB7F8948A
:102BD00060917B0170917C0180917D0190917E01DB
:102BE0002FBF08953FB7F89480917F0190918001A5
:102BF000A0918101B091820122B708B600FE05C004
:102C00002F3F19F00196A11DB11D3FBFBA2FA92F6B
:102C1000982F8827BC01CD01620F711D811D911D68
:102C200043E0660F771F881F991F4A95D1F70895D3
:102C30008F929F92AF92BF92CF92DF92EF92FF92CC
:102C40006B017C010E94F2154B015C01C114D1049F
:102C5000E104F104E9F00E9487160E94F215681958
:102C600079098A099B09683E73408105910570F3D3
:102C700021E0C21AD108E108F10888EE880E83E04D
:102C8000981EA11CB11CC114D104E104F10429F760
:102C9000FF90EF90DF90CF90BF90AF909F908F907C
:102CA0000895789483B7826083BF83B7816083BFC0
:102CB00083B7806483BF83B7886083BF89B781602F
:102CC00089BF1EBC8EB582608EBD8EB581608EBD03
:102CD0008FB581608FBD85B5846085BD85B5806405
:102CE00085BD329A319A3098379A1AB80895089566
:102CF0000E9451160E9477160E94380BC0E0D0E067
:102D00000E945D152097E1F30E940000F9CF08951D
:102D1000E199FECF9FBB8EBBE09A99278DB30895B2
:102D2000262FE199FECF9FBB8EBB2DBB0FB6F8942B
:0E2D3000E29AE19A0FBE01960895F894FFCF43
:102D3E000600050004000300020001000600050065
:102D4E000400030002000100170016001500140015
:102D5E00130012000B000A0009000800070006000D
:102D6E00110010000F000E000D000C0005000400F5
:102D7E0003000200010017001600150014001300D6
:102D8E0012000B000A0009000800070006001100DF
:102D9E0010000F000E000D000C00050004000300D3
:082DAE00020001000600980874
:00000001FF
