:100000000C943E000C945B000C945B000C945B0021
:100010000C945B000C945B000C945B000C945B00F4
:100020000C945B000C945B000C945B000C945B00E4
:100030000C945B000C945B000C945B000C945B00D4
:100040000C945B000C945B000C94B0150C945B005A
:100050000C945B000C945B000C945B000C945B00B4
:100060000C945B000C945B000C945B000C945B00A4
:100070000C945B000C945B000C945B0011241FBE7D
:10008000CFEFD4E0DEBFCDBF11E0A0E0B1E0E0E90A
:10009000FDE202C005900D92A837B107D9F722E022
:1000A000A8E7B1E001C01D92A332B207E1F70E94B8
:1000B000A0160C94C6160C9400000C94B0160C9468
:1000C000B8168091C6019091C7010E945D0090E032
:1000D00090931701809316018091720190917301A2
:1000E0000E945D0090E0909315018093140180912F
:1000F0007001909171010E945D0090E09093130156
:100100008093120180916E0190916F010E945D00B9
:1001100090E0909311018093100180916C01909177
:100120006D010E945D0090E090930F0180930E019D
:1001300080916A0190916B010E945D0090E0909324
:100140000D0180930C0180916801909169010E94DA
:100150005D0090E090938F0180938E018091660105
:10016000909167010E945D0090E090938D018093D3
:100170008C0180916401909165010E945D0090E086
:1001800090938B0180938A01809162019091630129
:100190000E945D0090E09093890180938801809196
:1001A0006001909161010E945D0090E09093870151
:1001B0008093860180915E0190915F010E945D00B5
:1001C00090E09093850180938401089580915C0173
:1001D00090915D010E945D0090E090930B018093EF
:1001E0000A0180915A0190915B010E945D0090E0AC
:1001F00090930901809308018091580190915901D1
:100200000E945D0090E09093070180930601809129
:100210005601909157010E945D0090E09093050176
:100220008093040180915401909155010E945D00DA
:1002300090E090930301809302018091520190918C
:1002400053010E945D0090E09093010180930001B2
:1002500080915001909151010E945D0090E0909337
:1002600083018093820180914E0190914F010E9401
:100270005D0090E0909381018093800180914C011A
:1002800090914D010E945D0090E090937F018093DA
:100290007E0180914A0190914B010E945D0090E0A7
:1002A00090937D0180937C01809148019091490158
:1002B0000E945D0090E090937B0180937A01809191
:1002C0004601909147010E945D0090E09093790172
:1002D00080937801089561E08091C6019091C701F3
:1002E0000E945F0062E080917201909173010E9410
:1002F0005F0063E080917001909171010E945F0046
:1003000064E080916E0190916F010E945F0065E052
:1003100080916C0190916D010E945F0066E0809178
:100320006A0190916B010E945F0060E0809168011A
:10033000909169010E945F0060E080916601909158
:1003400067010E945F0060E0809164019091650107
:100350000E945F0060E080916201909163010E94C1
:100360005F0060E080916001909161010E945F00F8
:1003700060E080915E0190915F010E945F0061E00A
:1003800080915C0190915D010E945F0062E080912C
:100390005A0190915B010E945F0063E080915801D7
:1003A000909159010E945F0064E080915601909104
:1003B00057010E945F0065E08091540190915501C2
:1003C0000E945F0066E080915201909153010E946B
:1003D0005F0060E080915001909151010E945F00A8
:1003E00060E080914E0190914F010E945F0060E0BB
:1003F00080914C0190914D010E945F0060E08091DE
:100400004A0190914B010E945F0060E08091480199
:10041000909149010E945F0060E0809146019091B7
:1004200047010C945F000F931F938091C801909136
:10043000C901892B09F058C08091CC019091CD0160
:10044000009709F048C08091CA019091CB010197B3
:1004500009F04AC08091EC019091ED0102969093D1
:10046000ED018093EC018091EA019091EB010296FD
:100470009093EB018093EA018091E8019091E9016A
:1004800002969093E9018093E8018091E6019091B2
:10049000E70102969093E7018093E6018091E401E1
:1004A0009091E50102969093E5018093E40180919B
:1004B000E2019091E30102969093E3018093E201BF
:1004C0000E94FA156093CE017093CF018093D00102
:1004D0009093D10109C0019739F48091CA0190919C
:1004E000CB01892B09F4B6CF8091C8019091C90145
:1004F000019709F054C00E94FA150091CE011091A5
:10050000CF012091D0013091D101601B710B820B82
:10051000930B643071058105910508F440C080910A
:10052000EC019091ED0101969093ED018093EC0127
:100530008091EA019091EB0101969093EB018093F9
:10054000EA018091E8019091E90101969093E90117
:100550008093E8018091E6019091E70101969093E4
:10056000E7018093E6018091E4019091E501019615
:100570009093E5018093E4018091E2019091E30181
:1005800001969093E3018093E2010E94FA15609333
:10059000CE017093CF018093D0019093D1018091CF
:1005A000EC019091ED01099734F081E090E0909397
:1005B000ED018093EC018091EA019091EB010D97A0
:1005C00034F081E090E09093EB018093EA01809118
:1005D000E8019091E901419734F081E090E0909337
:1005E000E9018093E8018091E6019091E701499744
:1005F00034F081E090E09093E7018093E6018091F0
:10060000E4019091E501819734F081E090E09093CE
:10061000E5018093E4018091E2019091E3018997E3
:1006200034F081E090E09093E3018093E2011F9128
:100630000F91089580918E0190918F0181309105E5
:1006400009F053C08091EC019091ED0104970CF4F6
:1006500056C080918C0190918D018130910509F0F7
:100660007CC08091EC019091ED0104970CF47FC067
:1006700080918A0190918B018130910509F0A5C08C
:100680008091EC019091ED0104970CF4A8C0809149
:100690008801909189018130910509F0CEC0809147
:1006A000EC019091ED0104970CF4D1C0809186018A
:1006B000909187018130910509F0F7C08091EC019C
:1006C0009091ED0104970CF4FAC08091840190910F
:1006D00085018130910509F020C18091EC01909154
:1006E000ED0104970CF449C108958230910561F43D
:1006F0008091EA019091EB0106970CF0AACF10923D
:10070000190210921802A5CF8330910539F4809117
:10071000E8019091E901089794F39BCF843091050B
:1007200039F48091E6019091E7010C9744F391CF61
:100730008530910539F48091E4019091E50140976D
:10074000F4F287CF069709F084CF8091E20190916F
:10075000E30144970CF07DCFD2CF8230910561F454
:100760008091EA019091EB0106970CF081CF1092F5
:100770001702109216027CCF8330910539F48091D4
:10078000E8019091E901089794F372CF84309105C4
:1007900039F48091E6019091E7010C9744F368CF1A
:1007A0008530910539F48091E4019091E5014097FD
:1007B000F4F25ECF069709F05BCF8091E201909151
:1007C000E30144970CF054CFD2CF8230910561F40D
:1007D0008091EA019091EB0106970CF058CF1092AE
:1007E00015021092140253CF8330910539F4809191
:1007F000E8019091E901089794F349CF843091057D
:1008000039F48091E6019091E7010C9744F33FCFD2
:100810008530910539F48091E4019091E50140978C
:10082000F4F235CF069709F032CF8091E201909132
:10083000E30144970CF02BCFD2CF8230910561F4C5
:100840008091EA019091EB0106970CF02FCF109266
:100850001302109212022ACF8330910539F480914D
:10086000E8019091E901089794F320CF8430910535
:1008700039F48091E6019091E7010C9744F316CF8B
:100880008530910539F48091E4019091E50140971C
:10089000F4F20CCF069709F009CF8091E201909114
:1008A000E30144970CF002CFD2CF8230910561F47E
:1008B0008091EA019091EB0106970CF006CF10921F
:1008C00011021092100201CF8330910539F480910A
:1008D000E8019091E901089794F3F7CE84309105EF
:1008E00039F48091E6019091E7010C9744F3EDCE45
:1008F0008530910539F48091E4019091E5014097AC
:10090000F4F2E3CE069709F0E0CE8091E2019091F7
:10091000E30144970CF0D9CED2CF8230910539F45F
:100920008091EA019091EB0106973CF108958330A4
:10093000910539F48091E8019091E9010897ECF074
:1009400008958430910539F48091E6019091E70192
:100950000C979CF008958530910539F48091E4015D
:100960009091E50140974CF00895069751F48091DD
:10097000E2019091E301449724F410920F02109247
:100980000E0208958091820190918301813091053A
:1009900009F053C08091EC019091ED0104970CF4A3
:1009A00056C080918001909181018130910509F0BC
:1009B0007CC08091EC019091ED0104970CF47FC014
:1009C00080917E0190917F018130910509F0A5C051
:1009D0008091EC019091ED0104970CF4A8C08091F6
:1009E0007C0190917D018130910509F0CEC080910C
:1009F000EC019091ED0104970CF4D1C080917A0143
:100A000090917B018130910509F0F7C08091EC0154
:100A10009091ED0104970CF4FAC0809178019091C7
:100A200079018130910509F020C18091EC0190910C
:100A3000ED0104970CF449C108958230910561F4E9
:100A40008091EA019091EB0106970CF0AACF1092E9
:100A50000B0210920A02A5CF8330910539F48091E0
:100A6000E8019091E901089794F39BCF84309105B8
:100A700039F48091E6019091E7010C9744F391CF0E
:100A80008530910539F48091E4019091E50140971A
:100A9000F4F287CF069709F084CF8091E20190911C
:100AA000E30144970CF07DCFD2CF8230910561F401
:100AB0008091EA019091EB0106970CF081CF1092A2
:100AC0000902109208027CCF8330910539F480919D
:100AD000E8019091E901089794F372CF8430910571
:100AE00039F48091E6019091E7010C9744F368CFC7
:100AF0008530910539F48091E4019091E5014097AA
:100B0000F4F25ECF069709F05BCF8091E2019091FD
:100B1000E30144970CF054CFD2CF8230910561F4B9
:100B20008091EA019091EB0106970CF058CF10925A
:100B300007021092060253CF8330910539F4809159
:100B4000E8019091E901089794F349CF8430910529
:100B500039F48091E6019091E7010C9744F33FCF7F
:100B60008530910539F48091E4019091E501409739
:100B7000F4F235CF069709F032CF8091E2019091DF
:100B8000E30144970CF02BCFD2CF8230910561F472
:100B90008091EA019091EB0106970CF02FCF109213
:100BA0000502109204022ACF8330910539F4809116
:100BB000E8019091E901089794F320CF84309105E2
:100BC00039F48091E6019091E7010C9744F316CF38
:100BD0008530910539F48091E4019091E5014097C9
:100BE000F4F20CCF069709F009CF8091E2019091C1
:100BF000E30144970CF002CFD2CF8230910561F42B
:100C00008091EA019091EB0106970CF006CF1092CB
:100C100003021092020201CF8330910539F48091D2
:100C2000E8019091E901089794F3F7CE843091059B
:100C300039F48091E6019091E7010C9744F3EDCEF1
:100C40008530910539F48091E4019091E501409758
:100C5000F4F2E3CE069709F0E0CE8091E2019091A4
:100C6000E30144970CF0D9CED2CF8230910539F40C
:100C70008091EA019091EB0106973CF10895833051
:100C8000910539F48091E8019091E9010897ECF021
:100C900008958430910539F48091E6019091E7013F
:100CA0000C979CF008958530910539F48091E4010A
:100CB0009091E50140974CF00895069751F480918A
:100CC000E2019091E301449724F410920102109202
:100CD000000208958091A6019091A7019093C3010D
:100CE0008093C2018091A4019091A5019093C101CC
:100CF0008093C0018091A2019091A3019093BF01C4
:100D00008093BE018091A0019091A1019093BD01BB
:100D10008093BC0180919E0190919F019093BB01B3
:100D20008093BA0180919C0190919D019093B901AB
:100D30008093B80180910C0290910D029093B701BD
:100D40008093B60180919A0190919B019093B50197
:100D50008093B40180919801909199019093B3018F
:100D60008093B20180919601909197019093B10187
:100D70008093B00180919401909195019093AF017F
:100D80008093AE0180919201909193019093AD0177
:100D90008093AC0180919001909191019093AB016F
:100DA0008093AA018091FE019091FF019093A90187
:100DB0008093A8018091CC019091CD019093CB01BB
:100DC0008093CA011092FD011092FC011092FB0168
:100DD0001092FA0110920D0210920C021092F5017D
:100DE0001092F4011092A7011092A6011092A50191
:100DF0001092A4011092A3011092A2011092A101DD
:100E00001092A00110929F0110929E0110929D01DC
:100E100010929C011092190210921802109217025F
:100E200010921602109215021092140210921302E0
:100E300010921202109211021092100210920F02E0
:100E400010920E021092FF011092FE011092F30117
:100E50001092F20110929B0110929A011092990146
:100E6000109298011092970110929601109295019C
:100E7000109294011092930110929201109291019C
:100E80001092900110920B0210920A021092090225
:100E900010920802109207021092060210920502A8
:100EA00010920402109203021092020210920102A8
:100EB000109200021092CD011092CC0119990EC02F
:100EC0008091160190911701909319028093180256
:100ED00081E090E09093A7018093A6011A990EC03B
:100EE000809114019091150190931702809316023E
:100EF00081E090E09093A5018093A4011B990EC01E
:100F00008091120190911301909315028093140225
:100F100081E090E09093A3018093A2011C990EC000
:100F2000809110019091110190931302809312020D
:100F300081E090E09093A1018093A0011D990EC0E3
:100F400080910E0190910F019093110280931002F5
:100F500081E090E090939F0180939E011E990EC0C6
:100F600080910C0190910D0190930F0280930E02DD
:100F700081E090E090939D0180939C01189906C0B8
:100F800081E090E090930D0280930C0235990EC0A1
:100F900080910A0190910B0190930B0280930A02B9
:100FA00081E090E090939B0180939A0134990EC068
:100FB00080910801909109019093090280930802A1
:100FC00081E090E0909399018093980133990EC04D
:100FD0008091060190910701909307028093060289
:100FE00081E090E0909397018093960132990EC032
:100FF0008091040190910501909305028093040271
:1010000081E090E0909395018093940131990EC016
:101010008091020190910301909303028093020258
:1010200081E090E0909393018093920130990EC0FB
:101030008091000190910101909301028093000240
:1010400081E090E09093910180939001369906C0E1
:1010500081E090E09093FF018093FE011F9906C00C
:1010600081E090E09093CD018093CC01379953C0FB
:1010700081E090E09093C9018093C8018091A6011E
:101080009091A7012091A4013091A501820F931F97
:101090002091A2013091A301820F931F2091A00102
:1010A0003091A101820F931F20919E0130919F01E9
:1010B000820F931F20919C0130919D01820F931FFD
:1010C0009093F5018093F40180919A0190919B0196
:1010D0002091980130919901820F931F20919601E0
:1010E00030919701820F931F2091940130919501C7
:1010F000820F931F2091920130919301820F931FD1
:101100002091900130919101820F931F9093F301F0
:101110008093F20108951092C9011092C801AECFD8
:101120000E946A068091F4019091F5010397D9F429
:101130008091A6019091A7010197A9F48091A40143
:101140009091A501019779F48091A2019091A3015A
:10115000019749F41092DF011092DE0160E088E10E
:1011600090E00E945F008091F4019091F501039757
:10117000E1F48091A4019091A5010197B1F48091CF
:10118000A2019091A301019781F48091A001909117
:10119000A1018130910549F49093DF018093DE0134
:1011A00061E088E190E00E945F008091F4019091FD
:1011B000F5010397E9F48091A2019091A3010197B1
:1011C000B9F48091A0019091A101019789F48091D7
:1011D0009E0190919F01019759F482E090E09093D5
:1011E000DF018093DE0162E088E190E00E945F0011
:1011F0008091F4019091F50183309105F1F42091F3
:10120000A0013091A10121303105B9F420919E0156
:1012100030919F012130310581F420919C01309162
:101220009D012130310549F49093DF018093DE0167
:1012300063E088E190E00E945F008091F40190916A
:10124000F5010397E9F480919E0190919F01019728
:10125000B9F480919C0190919D01019789F480914E
:10126000A6019091A701019759F484E090E0909332
:10127000DF018093DE0164E088E190E00E945F007E
:101280008091F4019091F5010397E9F480919C011C
:1012900090919D010197B9F48091A6019091A701C9
:1012A000019789F48091A4019091A501019759F4C7
:1012B00085E090E09093DF018093DE0165E088E1B6
:1012C00090E00E945F0088E190E00E945D00282F7E
:1012D00030E03093DF012093DE012EE1829FC001D8
:1012E00011249093DB018093DA012091C4013091A5
:1012F000C501280F391F3093C7012093C6012091E3
:10130000440130914501280F391F30937301209318
:1013100072012091420130914301280F391F30930F
:101320007101209370012091400130914101280FFB
:10133000391F30936F0120936E0120913E0130914F
:101340003F01280F391F30936D0120936C012091CC
:101350003C0130913D01280F391F30936B012093E0
:101360006A0120913A0130913B01280F391F3093D7
:101370006901209368012091380130913901280FCB
:10138000391F309367012093660120913601309117
:101390003701280F391F3093650120936401209194
:1013A000340130913501280F391F309363012093A8
:1013B00062012091320130913301280F391F30939F
:1013C0006101209360012091300130913101820F41
:1013D000931F90935F0180935E0108950E946A06B7
:1013E0008091F2019091F3010397D9F480919A01D1
:1013F00090919B010197A9F4809198019091990196
:10140000019779F48091960190919701019749F4A1
:101410001092DD011092DC0160E089E190E00E9411
:101420005F008091F2019091F3010397E1F48091C4
:101430009801909199010197B1F480919601909152
:101440009701019781F480919401909195018130E9
:10145000910549F49093DD018093DC0161E089E11D
:1014600090E00E945F008091F2019091F301039758
:10147000E9F480919601909197010197B9F48091D8
:10148000940190919501019789F480919201909136
:101490009301019759F482E090E09093DD018093ED
:1014A000DC0162E089E190E00E945F008091F2013E
:1014B0009091F30183309105F1F4209194013091E2
:1014C000950121303105B9F42091920130919301B9
:1014D0002130310581F4209190013091910121302A
:1014E000310549F49093DD018093DC0163E089E1EB
:1014F00090E00E945F008091F2019091F3010397C8
:10150000E9F480919201909193010197B9F480914F
:10151000900190919101019789F480919A019091A5
:101520009B01019759F484E090E09093DD01809352
:10153000DC0164E089E190E00E945F008091F201AB
:101540009091F3010397E9F48091900190919101BA
:101550000197B9F480919A0190919B01019789F4C8
:101560008091980190919901019759F485E090E05C
:101570009093DD018093DC0165E089E190E00E94B9
:101580005F0089E190E00E945D00282F30E03093F9
:10159000DD012093DC012EE1829FC0011124909394
:1015A000DB018093DA0120912E0130912F01280F69
:1015B000391F30935D0120935C0120912C01309103
:1015C0002D01280F391F30935B0120935A01209180
:1015D0002A0130912B01280F391F30935901209394
:1015E00058012091280130912901280F391F30938B
:1015F0005701209356012091260130912701280F91
:10160000391F3093550120935401209124013091CA
:101610002501280F391F3093530120935201209147
:10162000220130912301280F391F3093510120935B
:1016300050012091200130912101280F391F309352
:101640004F0120934E0120911E0130911F01280F60
:10165000391F30934D0120934C0120911C01309192
:101660001D01280F391F30934B0120934A0120910F
:101670001A0130911B01280F391F30934901209323
:1016800048012091180130911901820F931F909306
:101690004701809346010895CF93DF9317B88FEFEA
:1016A00088B914B885B9CCE0D0E011B81AB860E1B7
:1016B00070E080E090E00E942B16089A509A60E15A
:1016C00070E080E090E00E942B16219771F78AE18C
:1016D00090E00E945D00813001F581E090E0909300
:1016E000E1018093E0010E9490080E94EE090E94AF
:1016F00061000E94E6000E94FA156093CE0170938B
:10170000CF018093D0019093D10117B88FEF88B9A2
:1017100014B885B9DF91CF91089581E090E090935E
:10172000E1018093E001C7E0D0E02091DE0130913B
:10173000DF012F5F3F4F3093DF012093DE01809167
:10174000DC019091DD0101969093DD018093DC0135
:101750002630310524F01092DF011092DE01069749
:1017600024F01092DD011092DC016091DE0188E12D
:1017700090E00E945F006091DC0189E190E00E94AE
:101780005F000E9490080E94EE090E946B01219761
:1017900061F66091E0018AE190E00E945F00A3CFD2
:1017A0000F931F93CF93DF9380910C0290910D02C2
:1017B000019781F58091F4019091F50182309105B6
:1017C000A1F5C091B601D091B701C130D10511F595
:1017D0000E94FA150091D6011091D7012091D801ED
:1017E0003091D901AB01BC01401B510B620B730B53
:1017F0008091760190917701092E000CAA0BBB0B0A
:10180000481759076A077B0708F4A0C0D093F9016D
:10181000C093F8010E94FA156093D6017093D70126
:101820008093D8019093D90191C08130910551F5F1
:10183000C091B601D091B701C130D10559F70E94CE
:10184000FA150091D6011091D7012091D80130915D
:10185000D901AB01BC01401B510B620B730B809192
:10186000760190917701092E000CAA0BBB0B48174B
:1018700059076A077B0708F469C0D093F101C09348
:10188000F001C8CF039731F68091B6019091B7016E
:10189000019709F0BFCF0E94FA150091D60110916F
:1018A000D7012091D8013091D901AB01BC01401B77
:1018B000510B620B730B8091760190917701092E89
:1018C000000CAA0BBB0B481759076A077B07F0F1FE
:1018D0000E94FA156093D6017093D7018093D801C6
:1018E0009093D9010E949008D0E0C0E08091DE0181
:1018F0009091DF018C179D073CF11092FB01109233
:10190000FA0111B86CE271E080E090E00E942B16C1
:101910008091FA019091FB0181609093FB0180938B
:10192000FA0181B96EE170E080E090E00E942B1630
:101930000E94FA156093D6017093D7018093D80165
:101940009093D9012196D2CF0E9461008091FE012F
:101950009091FF01019779F58091F2019091F30147
:1019600082309105B9F5C091A801D091A901C1308B
:10197000D10509F50E94FA150091D2011091D30109
:101980002091D4013091D501AB01BC01401B510B1A
:10199000620B730B8091760190917701092E000CF8
:1019A000AA0BBB0B481759076A077B0770F0D09347
:1019B000F701C093F6010E94FA156093D20170936B
:1019C000D3018093D4019093D501DF91CF911F91E2
:1019D0000F9108958130910549F5C091A801D091EA
:1019E000A901C130D10539F70E94FA150091D20141
:1019F0001091D3012091D4013091D501AB01BC01EC
:101A0000401B510B620B730B809176019091770113
:101A1000092E000CAA0BBB0B481759076A077B0756
:101A2000A0F2D093EF01C093EE01C5CF039719F652
:101A30008091A8019091A901019709F0BCCF0E9463
:101A4000FA150091D2011091D3012091D401309167
:101A5000D501AB01BC01401B510B620B730B809194
:101A6000760190917701092E000CAA0BBB0B481749
:101A700059076A077B0708F4A8CF0E94EE09D0E057
:101A8000C0E08091DC019091DD018C179D073CF155
:101A90001092FD011092FC011AB86CE271E080E036
:101AA00090E00E942B168091FC019091FD018160D5
:101AB0009093FD018093FC018AB96EE170E080E0B3
:101AC00090E00E942B160E94FA156093D201709349
:101AD000D3018093D4019093D5012196D2CFDF9189
:101AE000CF911F910F910C94E60080911802909174
:101AF00019028130910519F12091160230911702D7
:101B000021303105E1F0209114023091150221308D
:101B10003105A9F0209112023091130221303105D4
:101B200071F020911002309111022130310539F00D
:101B300020910E0230910F022130310549F420919D
:101B4000FA013091FB0122603093FB012093FA01EE
:101B50008230910519F1209116023091170222303E
:101B60003105E1F020911402309115022230310547
:101B7000A9F020911202309113022230310571F048
:101B800020911002309111022230310539F020915C
:101B90000E0230910F022230310549F42091FA01F2
:101BA0003091FB0124603093FB012093FA018330D4
:101BB000910519F120911602309117022330310559
:101BC000E1F0209114023091150223303105A9F083
:101BD00020911202309113022330310571F02091CF
:101BE0001002309111022330310539F020910E029C
:101BF00030910F022330310549F42091FA013091E0
:101C0000FB0128603093FB012093FA018430910599
:101C100019F1209116023091170224303105E1F0BC
:101C2000209114023091150224303105A9F0209141
:101C30001202309113022430310571F0209110020C
:101C4000309111022430310539F020910E0230918B
:101C50000F022430310549F42091FA013091FB0143
:101C600020613093FB012093FA018530910519F131
:101C7000209116023091170225303105E1F02091B4
:101C800014023091150225303105A9F0209112027D
:101C9000309113022530310571F0209110023091FE
:101CA00011022530310539F020910E0230910F02DA
:101CB0002530310549F42091FA013091FB01206271
:101CC0003093FB012093FA010697F1F08091160200
:101CD000909117020697C1F080911402909115021D
:101CE000069791F08091120290911302069761F08D
:101CF0008091100290911102069731F080910E02AE
:101D000090910F02069749F48091FA019091FB019E
:101D100080649093FB018093FA01089580910A02F8
:101D200090910B028130910519F1209108023091B8
:101D3000090221303105E1F02091060230910702BD
:101D400021303105A9F020910402309105022130A3
:101D5000310571F0209102023091030221303105EA
:101D600039F020910002309101022130310549F40F
:101D70002091FC013091FD0122603093FD01209300
:101D8000FC018230910519F120910802309109027D
:101D900022303105E1F02091060230910702223015
:101DA0003105A9F02091040230910502223031055D
:101DB00071F020910202309103022230310539F096
:101DC00020910002309101022230310549F4209126
:101DD000FC013091FD0124603093FD012093FC0152
:101DE0008330910519F120910802309109022330C6
:101DF0003105E1F0209106023091070223303105D0
:101E0000A9F020910402309105022330310571F0D0
:101E100020910202309103022330310539F02091E4
:101E20000002309101022330310549F42091FC0178
:101E30003091FD0128603093FD012093FC01843036
:101E4000910519F1209108023091090224303105E1
:101E5000E1F0209106023091070224303105A9F00B
:101E600020910402309105022430310571F0209157
:101E70000202309103022430310539F02091000232
:101E8000309101022430310549F42091FC01309158
:101E9000FD0120613093FD012093FC018530910507
:101EA00019F1209108023091090225303105E1F045
:101EB000209106023091070225303105A9F02091CA
:101EC0000402309105022530310571F020910202A3
:101ED000309103022530310539F020910002309114
:101EE00001022530310549F42091FC013091FD01BA
:101EF00020623093FD012093FC010697F1F0809160
:101F00000802909109020697C1F080910602909113
:101F10000702069791F080910402909105020697BE
:101F200061F08091020290910302069731F0809156
:101F3000000290910102069749F48091FC01909172
:101F4000FD0180649093FD018093FC0108958091D0
:101F50000C0290910D028130910509F07BC0209117
:101F6000F4013091F5012230310509F073C010926F
:101F7000170110921601109215011092140110927F
:101F8000130110921201109211011092100110927F
:101F90000F0110920E0110920D0110920C019093FE
:101FA000FB018093FA0181E081B960EA70E080E092
:101FB00090E00E942B168091F4019091F501019719
:101FC00021F41092FB011092FA018091FA0181B97B
:101FD00080910C0290910D02019709F030C180911F
:101FE000B6019091B701892B09F029C11092F9012E
:101FF0001092F801609116018091C6019091C7017D
:102000000E945F00609114018091720190917301B0
:102010000E945F00609112018091700190917101A6
:102020000E945F006091100180916E0190916F019C
:102030000E945F0060910E0180916C0190916D0192
:102040000E945F0060910C0180916A0190916B0188
:102050000C945F0060E170E080E090E00E942B163D
:102060008091FA019091FB0181609093FB01809334
:10207000FA018091A6019091A7012091F40130917D
:10208000F501019791F48091C2019091C301892BD0
:1020900061F42130310549F48091160190911701C6
:1020A000019690931701809316018091740190918D
:1020B000750140911601509117018417950724F47A
:1020C00010921701109216014091A4015091A501A0
:1020D0004130510599F44091C0015091C101452B07
:1020E00069F42130310551F44091140150911501EA
:1020F0004F5F5F4F509315014093140140911401BD
:10210000509115018417950724F41092150110922F
:1021100014014091A2015091A3014130510599F45D
:102120004091BE015091BF01452B69F4213031052A
:1021300051F440911201509113014F5F5F4F509342
:102140001301409312014091120150911301841721
:10215000950724F410921301109212014091A001EE
:102160005091A1014130510599F44091BC01509129
:10217000BD01452B69F42130310551F44091100126
:10218000509111014F5F5F4F509311014093100127
:1021900040911001509111018417950724F4109279
:1021A00011011092100140919E0150919F01413008
:1021B000510599F44091BA015091BB01452B69F446
:1021C0002130310551F440910E0150910F014F5FC4
:1021D0005F4F50930F0140930E0140910E015091BB
:1021E0000F018417950724F410920F0110920E012D
:1021F00040919C0150919D014130510599F44091CD
:10220000B8015091B901452B69F42130310551F4E1
:1022100020910C0130910D012F5F3F4F30930D0144
:1022200020930C0120910C0130910D01821793072E
:102230000CF0C1CE10920D0110920C01BCCE08958D
:102240008091FE019091FF018130910509F07BC0E2
:102250002091F2013091F3012230310509F073C071
:1022600010920B0110920A011092090110920801BC
:1022700010920701109206011092050110920401BC
:1022800010920301109202011092010110920001BC
:102290009093FD018093FC0181E08AB960EA70E0CF
:1022A00080E090E00E942B168091F2019091F30162
:1022B000019721F41092FD011092FC018091FC0124
:1022C0008AB98091FE019091FF01019709F030C118
:1022D0008091A8019091A901892B09F029C1109240
:1022E000F7011092F60160910A0180915C019091D2
:1022F0005D010E945F006091080180915A019091F8
:102300005B010E945F0060910601809158019091ED
:1023100059010E945F0060910401809156019091E3
:1023200057010E945F0060910201809154019091D9
:1023300055010E945F0060910001809152019091CF
:1023400053010C945F0060E170E080E090E00E9437
:102350002B168091FC019091FD0181609093FD010D
:102360008093FC0180919A0190919B012091F20150
:102370003091F301019791F48091B4019091B501EE
:10238000892B61F42130310549F480910A01909143
:102390000B01019690930B0180930A0180917401C7
:1023A0009091750140910A0150910B018417950796
:1023B00024F410920B0110920A014091980150915F
:1023C00099014130510599F44091B2015091B30106
:1023D000452B69F42130310551F4409108015091A9
:1023E00009014F5F5F4F50930901409308014091ED
:1023F0000801509109018417950724F410920901EE
:102400001092080140919601509197014130510579
:1024100099F44091B0015091B101452B69F42130FC
:10242000310551F440910601509107014F5F5F4F14
:102430005093070140930601409106015091070116
:102440008417950724F41092070110920601409119
:102450009401509195014130510599F44091AE019C
:102460005091AF01452B69F42130310551F4409171
:102470000401509105014F5F5F4F50930501409358
:10248000040140910401509105018417950724F43B
:102490001092050110920401409192015091930114
:1024A0004130510599F44091AC015091AD01452B5B
:1024B00069F42130310551F440910201509103013A
:1024C0004F5F5F4F5093030140930201409102011F
:1024D000509103018417950724F410920301109280
:1024E000020140919001509191014130510599F4C0
:1024F0004091AA015091AB01452B69F4213031057F
:1025000051F420910001309101012F5F3F4F309332
:1025100001012093000120910001309101018217F7
:1025200093070CF0C1CE1092010110920001BCCEB5
:10253000089580910C0290910D02019759F58091B8
:10254000F4019091F5018130910521F510928F01F0
:1025500010928E0110928D0110928C0110928B01BD
:1025600010928A01109289011092880110928701BD
:102570001092860110928501109284019093FB01C4
:102580008093FA0181E081B960EA70E080E090E038
:102590000C942B1660E170E080E090E00E942B1616
:1025A0008091FA019091FB0181609093FB018093EF
:1025B000FA012091A6013091A7018091F401909138
:1025C000F5012130310599F42091C2013091C30108
:1025D000232B69F48130910551F420918E013091C3
:1025E0008F012F5F3F4F30938F0120938E012091F9
:1025F0008E0130918F012730310524F010928F0128
:1026000010928E012091A4013091A5012130310555
:1026100099F42091C0013091C101232B69F48130DC
:10262000910551F420918C0130918D012F5F3F4F26
:1026300030938D0120938C0120918C0130918D017C
:102640002730310524F010928D0110928C012091D9
:10265000A2013091A3012130310599F42091BE01EE
:102660003091BF01232B69F48130910551F4209101
:102670008A0130918B012F5F3F4F30938B01209364
:102680008A0120918A0130918B012730310524F095
:1026900010928B0110928A012091A0013091A1012A
:1026A0002130310599F42091BC013091BD01232BDB
:1026B00069F48130910551F42091880130918901AC
:1026C0002F5F3F4F3093890120938801209188012B
:1026D000309189012730310524F010928901109240
:1026E000880120919E0130919F012130310599F49C
:1026F0002091BA013091BB01232B69F481309105FF
:1027000051F420918601309187012F5F3F4F309324
:10271000870120938601209186013091870127301F
:10272000310524F0109287011092860120919C01BE
:1027300030919D012130310599F42091B8013091FB
:10274000B901232B69F48130910551F42091840162
:10275000309185012F5F3F4F309385012093840195
:1027600020918401309185012730310524F01092A9
:10277000850110928401019721F41092FB011092BF
:10278000FA018091FA0181B980910C0290910D02B9
:102790000197D1F58091B6019091B701892BA1F5F0
:1027A0001092F1011092F00160918E018091680108
:1027B000909169010E945F0060918C018091660197
:1027C000909167010E945F0060918A01809164018D
:1027D000909165010E945F00609188018091620183
:1027E000909163010E945F00609186018091600179
:1027F000909161010E945F006091840180915E016F
:1028000090915F010C945F0008958091FE0190917A
:10281000FF01019759F58091F2019091F301813008
:10282000910521F51092830110928201109281018D
:102830001092800110927F0110927E0110927D0112
:1028400010927C0110927B0110927A011092790112
:10285000109278019093FD018093FC0181E08AB988
:1028600060EA70E080E090E00C942B1660E170E08C
:1028700080E090E00E942B168091FC019091FD0178
:1028800081609093FD018093FC0120919A01309129
:102890009B018091F2019091F3012130310599F46F
:1028A0002091B4013091B501232B69F48130910559
:1028B00051F420918201309183012F5F3F4F30937B
:1028C000830120938201209182013091830127307E
:1028D000310524F010928301109282012091980119
:1028E000309199012130310599F42091B201309154
:1028F000B301232B69F48130910551F420918001BB
:10290000309181012F5F3F4F3093810120938001EF
:1029100020918001309181012730310524F01092FF
:102920008101109280012091960130919701213010
:10293000310599F42091B0013091B101232B69F454
:102940008130910551F420917E0130917F012F5FFC
:102950003F4F30937F0120937E0120917E01309183
:102960007F012730310524F010927F0110927E0103
:1029700020919401309195012130310599F42091F5
:10298000AE013091AF01232B69F48130910551F4F0
:1029900020917C0130917D012F5F3F4F30937D016D
:1029A00020937C0120917C0130917D0127303105FD
:1029B00024F010927D0110927C01209192013091BF
:1029C00093012130310599F42091AC013091AD0192
:1029D000232B69F48130910551F420917A013091D3
:1029E0007B012F5F3F4F30937B0120937A01209131
:1029F0007A0130917B012730310524F010927B0160
:102A000010927A012091900130919101213031058D
:102A100099F42091AA013091AB01232B69F4813004
:102A2000910551F420917801309179012F5F3F4F4A
:102A300030937901209378012091780130917901C8
:102A40002730310524F01092790110927801019716
:102A500021F41092FD011092FC018091FC018AB9D1
:102A60008091FE019091FF010197D1F58091A8011D
:102A70009091A901892BA1F51092EF011092EE011E
:102A80006091820180915001909151010E945F00FC
:102A90006091800180914E0190914F010E945F00F2
:102AA00060917E0180914C0190914D010E945F00E8
:102AB00060917C0180914A0190914B010E945F00DE
:102AC00060917A0180914801909149010E945F00D4
:102AD0006091780180914601909147010C945F00CC
:102AE00008950E946A060E94D00B0E9413028091F2
:102AF000F8019091F901019791F41092F10110926F
:102B0000F0010E94A70F8091F6019091F7010197C3
:102B1000B9F41092EF011092EE010C942011809103
:102B2000F0019091F101019719F40E949912EBCFF5
:102B30000E941A030E94750D8091FA0181B9E3CFBA
:102B40008091EE019091EF01019711F40C9405141E
:102B50000E94C2040E948E0E8091FC018AB90895E1
:102B60001F920F920FB60F9211242F933F938F93C2
:102B70009F93AF93BF9380911B0290911C02A091F1
:102B80001D02B0911E0230911A0226E0230F2D374C
:102B900058F50296A11DB11D20931A0280931B02C5
:102BA00090931C02A0931D02B0931E0280911F02FD
:102BB00090912002A0912102B09122020196A11DC4
:102BC000B11D80931F0290932002A0932102B09325
:102BD0002202BF91AF919F918F913F912F910F90C2
:102BE0000FBE0F901F90189529E8230F0396A11D83
:102BF000B11DD2CF2FB7F89460911B0270911C02C7
:102C000080911D0290911E022FBF08953FB7F89446
:102C100080911F0290912002A0912102B091220286
:102C200026B5A89B05C02F3F19F00196A11DB11D27
:102C30003FBFBA2FA92F982F8827BC01CD01620F63
:102C4000711D811D911D43E0660F771F881F991F1D
:102C50004A95D1F708958F929F92AF92BF92CF92EB
:102C6000DF92EF92FF926B017C010E9406164B01EE
:102C70005C01C114D104E104F104E9F00E94AF1633
:102C80000E940616681979098A099B09683E7340F3
:102C90008105910570F321E0C21AD108E108F1081D
:102CA00088EE880E83E0981EA11CB11CC114D104CB
:102CB000E104F10429F7FF90EF90DF90CF90BF90EF
:102CC000AF909F908F900895789484B5826084BD72
:102CD00084B5816084BD85B5826085BD85B5816020
:102CE00085BDEEE6F0E0808181608083E1E8F0E080
:102CF0001082808182608083808181608083E0E8AF
:102D0000F0E0808181608083E1EBF0E0808184608D
:102D10008083E0EBF0E0808181608083EAE7F0E08F
:102D200080818460808380818260808380818E7FC7
:102D300080838081806880831092C1000895089507
:102D40000E9464160E949F160E944C0BC0E0D0E0C7
:102D50000E9471152097E1F30E940000F9CF0895B9
:102D6000F999FECF92BD81BDF89A992780B5089553
:102D7000262FF999FECF1FBA92BD81BD20BD0FB697
:102D8000F894FA9AF99A0FBE01960895F894FFCF35
:102D90000600050004000300020001000600050013
:102DA00004000300020001001700160015001400C3
:102DB000130012000B000A000900080007000600BB
:102DC000110010000F000E000D000C0005000400A3
:102DD0000300020001001700160015001400130084
:102DE00012000B000A00090008000700060011008D
:102DF00010000F000E000D000C0005000400030081
:082E0000020001000600980821
:00000001FF
