:1000000034C043C042C041C040C03FC03EC03DC0FC
:100010003CC03BC03AC0AAC038C037C036C035C0AB
:1000200034C033C032C031C00000200023000000C3
:1000300001000000000000000004000003000000B8
:10004000220025000000210024000101010101011E
:10005000010102020202020202020102040810204F
:100060004080010204081020408011241FBECFEF01
:10007000D2E0DEBFCDBF21E0A0E0B1E001C01D9223
:10008000AB32B207E1F7BCD0A2C2BACFCF93DF93B5
:1000900087FF04C08F77883008F08B5F90E0FC0109
:1000A000E65AFF4F2491865B9F4FFC018491882381
:1000B000C1F090E0880F991FFC01EC5BFF4FC591E8
:1000C000D491FC01E25CFF4FA591B4919FB7F894E5
:1000D0003881822F809583238883EC91E22BEC93E7
:1000E0009FBFDF91CF91089587FF04C08F7788303D
:1000F00008F08B5F90E0FC01E25DFF4F2491FC0172
:10010000E65AFF4F3491FC01E65BFF4FE491EE238A
:1001100051F1222329F0213089F485B58F7785BDEF
:10012000F0E0EE0FFF1FE85DFF4FA591B491EC9159
:10013000E32381E090E0C9F480E00895233031F4B6
:10014000809180008F7780938000EACF243041F740
:10015000809180008F7D80938000809183008F7DCF
:1001600080938300DDCF80E090E008951F920F928E
:100170000FB60F9211242F933F938F939F93AF93BA
:10018000BF938091270190912801A0912901B091FE
:100190002A013091260126E0230F2D3768F129E846
:1001A000230F0396A11DB11D2093260180932701E3
:1001B00090932801A0932901B0932A0180912201F4
:1001C00090912301A0912401B09125010196A11DD8
:1001D000B11D8093220190932301A0932401B09339
:1001E0002501BF91AF919F918F913F912F910F90DA
:1001F0000FBE0F901F9018950296A11DB11DD4CF70
:10020000809166008093660016BC15BC17BC18BCB4
:1002100010926E0085B3836085BB85B5826085BD15
:1002200085B5816085BD86B5887F846086BD7894FC
:1002300080916E00816080936E0080918100887F44
:100240008093810080918000816080938000809104
:1002500080008D7F8093800080918100877F8093D4
:100260008100809181008F7E809381008091810048
:1002700083608093810080917A008877866880937C
:100280007A0080917A00806880937A0080E0FEDEB8
:1002900088E0FCDE81E0FADE82E0F8DE86E0F6DE71
:1002A00087E0F4DE85E0F2DE84E0F0DE8EE0EEDE74
:1002B000C1E0D0E002E010E088E0E82EF12C1092DE
:1002C00021011092200110921F0110921E01109224
:1002D0001D0110921C0110921B0110921A01109224
:1002E00019011092180110920D0110920C01109238
:1002F00011011092100110920B0110920A0110923C
:10030000030110920201109217011092160110922F
:100310001501109214011092130110921201109203
:1003200007011092060110920F0110920E01109217
:100330000501109204011092010110920001109227
:1003400009011092080188E0CFDE892B21F4D093B7
:100350001101C093100180E0C7DE892B21F4D093F6
:100360000D01C0930C0181E0BFDE892B21F4D093F5
:100370000B01C0930A0182E0B7DE892B21F4D093F0
:100380000301C093020187E0AFDE892B21F4D093F3
:100390000F01C0930E0186E0A7DE892B21F4D093D4
:1003A0000701C093060185E09FDE892B21F4D093DD
:1003B0000501C093040184E097DE892B21F4D093DA
:1003C0000101C09300018EE08FDE892B21F4D093D0
:1003D0000901C093080180911001909111018130B1
:1003E000910521F490931D0180931C0120910E0131
:1003F00030910F012130310509F073C0309317019E
:10040000209316018130910509F540910C0150911E
:100410000D0141305105B1F440910A0150910B0199
:100420004130510579F44091080150910901413062
:10043000510541F450931B0140931A0110921D0184
:1004400010921C012130310509F051C04091060184
:100450005091070141305105C1F440910401509180
:1004600005014130510509F040C04091080150910B
:1004700009014130510509F0A6C050931501409380
:1004800014011092170110921601019781F18091C9
:100490000401909105010197C9F4809100019091A8
:1004A0000101019799F4809108019091090181302F
:1004B000910561F49093130180931201109217013A
:1004C0001092160103C02130310509F380911C01FF
:1004D00090911D01019751F510931F0100931E018A
:1004E00025C08130910591F790CF019779F78091E0
:1004F0000A0190910B01019731F7809102019091CF
:100500000301019701F78091080190910901813061
:100510009105C9F6909319018093180110921D015D
:1005200010921C012130310509F4B1CF80911A01DC
:1005300090911B01019721F4F0922101E09220019A
:100540008091180190911901019749F480911E0141
:1005500090911F01886090931F0180931E018091EC
:10056000160190911701019749F480911E01909115
:100570001F01846090931F0180931E0180911401DC
:1005800090911501019749F480911E0190911F01EE
:10059000806290931F0180931E01809112019091BF
:1005A0001301019749F480911E0190911F01806110
:1005B00090931F0180931E018091200181B9809149
:1005C0001E0184B97CCE019709F067CF90CFF894D3
:0205D000FFCF5B
:00000001FF
